{
  "_format": "hh-sol-artifact-1",
  "contractName": "ProjectSolidityV2",
  "sourceName": "contracts/ProjectSolidityV2.sol",
  "abi": [
    {
      "inputs": [
        {
          "internalType": "address",
          "name": "_token0",
          "type": "address"
        },
        {
          "internalType": "address",
          "name": "_token1",
          "type": "address"
        },
        {
          "internalType": "address",
          "name": "_token2",
          "type": "address"
        }
      ],
      "stateMutability": "nonpayable",
      "type": "constructor"
    },
    {
      "anonymous": false,
      "inputs": [
        {
          "indexed": false,
          "internalType": "int256",
          "name": "playerEntryPrice",
          "type": "int256"
        },
        {
          "indexed": false,
          "internalType": "bool",
          "name": "more",
          "type": "bool"
        },
        {
          "indexed": false,
          "internalType": "address",
          "name": "player",
          "type": "address"
        },
        {
          "indexed": false,
          "internalType": "uint256",
          "name": "amount",
          "type": "uint256"
        }
      ],
      "name": "retourPlaceBet",
      "type": "event"
    },
    {
      "inputs": [
        {
          "internalType": "uint256",
          "name": "_amount0",
          "type": "uint256"
        },
        {
          "internalType": "uint256",
          "name": "_amount1",
          "type": "uint256"
        }
      ],
      "name": "addLiquidity",
      "outputs": [
        {
          "internalType": "uint256",
          "name": "shares",
          "type": "uint256"
        }
      ],
      "stateMutability": "nonpayable",
      "type": "function"
    },
    {
      "inputs": [
        {
          "internalType": "address",
          "name": "",
          "type": "address"
        }
      ],
      "name": "balanceOf",
      "outputs": [
        {
          "internalType": "uint256",
          "name": "",
          "type": "uint256"
        }
      ],
      "stateMutability": "view",
      "type": "function"
    },
    {
      "inputs": [
        {
          "internalType": "int256",
          "name": "oldPrice",
          "type": "int256"
        },
        {
          "internalType": "bool",
          "name": "more",
          "type": "bool"
        },
        {
          "internalType": "address",
          "name": "player",
          "type": "address"
        },
        {
          "internalType": "uint256",
          "name": "amount",
          "type": "uint256"
        }
      ],
      "name": "checkBet",
      "outputs": [],
      "stateMutability": "nonpayable",
      "type": "function"
    },
    {
      "inputs": [],
      "name": "fees",
      "outputs": [
        {
          "internalType": "uint256",
          "name": "",
          "type": "uint256"
        }
      ],
      "stateMutability": "view",
      "type": "function"
    },
    {
      "inputs": [
        {
          "internalType": "address",
          "name": "user",
          "type": "address"
        }
      ],
      "name": "getBalanceOf",
      "outputs": [
        {
          "internalType": "uint256",
          "name": "userbalance",
          "type": "uint256"
        }
      ],
      "stateMutability": "view",
      "type": "function"
    },
    {
      "inputs": [],
      "name": "getLatestPrice",
      "outputs": [
        {
          "internalType": "int256",
          "name": "",
          "type": "int256"
        }
      ],
      "stateMutability": "view",
      "type": "function"
    },
    {
      "inputs": [],
      "name": "getReserve",
      "outputs": [
        {
          "internalType": "uint256",
          "name": "",
          "type": "uint256"
        }
      ],
      "stateMutability": "view",
      "type": "function"
    },
    {
      "inputs": [
        {
          "internalType": "uint256",
          "name": "amount",
          "type": "uint256"
        },
        {
          "internalType": "bool",
          "name": "more",
          "type": "bool"
        }
      ],
      "name": "makeBet",
      "outputs": [],
      "stateMutability": "payable",
      "type": "function"
    },
    {
      "inputs": [
        {
          "internalType": "int256",
          "name": "price",
          "type": "int256"
        }
      ],
      "name": "makePrediction",
      "outputs": [],
      "stateMutability": "payable",
      "type": "function"
    },
    {
      "inputs": [
        {
          "internalType": "uint256",
          "name": "amount",
          "type": "uint256"
        },
        {
          "internalType": "bool",
          "name": "more",
          "type": "bool"
        }
      ],
      "name": "placeBet",
      "outputs": [
        {
          "internalType": "int256",
          "name": "",
          "type": "int256"
        },
        {
          "internalType": "bool",
          "name": "",
          "type": "bool"
        },
        {
          "internalType": "address",
          "name": "",
          "type": "address"
        },
        {
          "internalType": "uint256",
          "name": "",
          "type": "uint256"
        }
      ],
      "stateMutability": "payable",
      "type": "function"
    },
    {
      "inputs": [
        {
          "internalType": "uint256",
          "name": "_shares",
          "type": "uint256"
        }
      ],
      "name": "removeLiquidity",
      "outputs": [
        {
          "internalType": "uint256",
          "name": "amount0",
          "type": "uint256"
        },
        {
          "internalType": "uint256",
          "name": "amount1",
          "type": "uint256"
        }
      ],
      "stateMutability": "nonpayable",
      "type": "function"
    },
    {
      "inputs": [],
      "name": "repayPlayer",
      "outputs": [],
      "stateMutability": "payable",
      "type": "function"
    },
    {
      "inputs": [],
      "name": "reserve0",
      "outputs": [
        {
          "internalType": "uint256",
          "name": "",
          "type": "uint256"
        }
      ],
      "stateMutability": "view",
      "type": "function"
    },
    {
      "inputs": [],
      "name": "reserve1",
      "outputs": [
        {
          "internalType": "uint256",
          "name": "",
          "type": "uint256"
        }
      ],
      "stateMutability": "view",
      "type": "function"
    },
    {
      "inputs": [],
      "name": "selectWinner",
      "outputs": [],
      "stateMutability": "nonpayable",
      "type": "function"
    },
    {
      "inputs": [
        {
          "internalType": "address payable",
          "name": "_to",
          "type": "address"
        }
      ],
      "name": "sendViaCall",
      "outputs": [],
      "stateMutability": "payable",
      "type": "function"
    },
    {
      "inputs": [
        {
          "internalType": "uint256",
          "name": "newFees",
          "type": "uint256"
        }
      ],
      "name": "setFees",
      "outputs": [],
      "stateMutability": "nonpayable",
      "type": "function"
    },
    {
      "inputs": [
        {
          "internalType": "address",
          "name": "_tokenIn",
          "type": "address"
        },
        {
          "internalType": "uint256",
          "name": "_amountIn",
          "type": "uint256"
        }
      ],
      "name": "swap",
      "outputs": [
        {
          "internalType": "uint256",
          "name": "amountOut",
          "type": "uint256"
        }
      ],
      "stateMutability": "nonpayable",
      "type": "function"
    },
    {
      "inputs": [],
      "name": "token0",
      "outputs": [
        {
          "internalType": "contract IERC20",
          "name": "",
          "type": "address"
        }
      ],
      "stateMutability": "view",
      "type": "function"
    },
    {
      "inputs": [],
      "name": "token1",
      "outputs": [
        {
          "internalType": "contract IERC20",
          "name": "",
          "type": "address"
        }
      ],
      "stateMutability": "view",
      "type": "function"
    },
    {
      "inputs": [],
      "name": "token2",
      "outputs": [
        {
          "internalType": "contract IERC20",
          "name": "",
          "type": "address"
        }
      ],
      "stateMutability": "view",
      "type": "function"
    },
    {
      "inputs": [],
      "name": "totalSupply",
      "outputs": [
        {
          "internalType": "uint256",
          "name": "",
          "type": "uint256"
        }
      ],
      "stateMutability": "view",
      "type": "function"
    }
  ],
  "bytecode": "0x60e06040527fffffffffffffffffffffffffffffffffffffffffffffffffffffffffffffffff6006557f7fffffffffffffffffffffffffffffffffffffffffffffffffffffffffffffff6007556001600b60016101000a81548160ff0219169083151502179055503480156200007457600080fd5b5060405162002f9438038062002f9483398181016040528101906200009a91906200024d565b336000806101000a81548173ffffffffffffffffffffffffffffffffffffffff021916908373ffffffffffffffffffffffffffffffffffffffff16021790555073d4a33860578de61dbabdc8bfdb98fd742fa7028e600160006101000a81548173ffffffffffffffffffffffffffffffffffffffff021916908373ffffffffffffffffffffffffffffffffffffffff160217905550426005819055508273ffffffffffffffffffffffffffffffffffffffff1660808173ffffffffffffffffffffffffffffffffffffffff16815250508173ffffffffffffffffffffffffffffffffffffffff1660a08173ffffffffffffffffffffffffffffffffffffffff16815250508073ffffffffffffffffffffffffffffffffffffffff1660c08173ffffffffffffffffffffffffffffffffffffffff16815250506064600e81905550505050620002a9565b600080fd5b600073ffffffffffffffffffffffffffffffffffffffff82169050919050565b60006200021582620001e8565b9050919050565b620002278162000208565b81146200023357600080fd5b50565b60008151905062000247816200021c565b92915050565b600080600060608486031215620002695762000268620001e3565b5b6000620002798682870162000236565b93505060206200028c8682870162000236565b92505060406200029f8682870162000236565b9150509250925092565b60805160a05160c051612c0c62000388600039600081816106030152818161070b015281816107aa015281816108c001528181610d650152818161159d0152818161167101528181611710015261193e015260008181610f450152818161112f01528181611278015281816114de01528181611a4801528181611b7801528181611be601528181611df60152611ea10152600081816104eb01528181610ea701528181611090015281816111d701528181611444015281816119f301528181611b1c01528181611b9901528181611bc50152611d5c0152612c0c6000f3fe6080604052600436106101355760003560e01c8063830c29ae116100ab5780639c8f9f231161006f5780639c8f9f23146103aa5780639cd441da146103e85780639ed9c74d14610425578063cdaca3ae14610458578063d004f0f714610481578063d21220a7146104be57610135565b8063830c29ae146102f15780638e15f4731461030d5780639520d0fa146103385780639af1d35a146103425780639b96eece1461036d57610135565b806333a99e04116100fd57806333a99e04146101f35780633d18678e1461020a578063443cb4bc1461023357806359bf5d391461025e5780635a76f25e1461028957806370a08231146102b457610135565b80630dfe16811461013a5780631453f4fd1461016557806318160ddd146101815780632093beb9146101ac57806325be124e146101c8575b600080fd5b34801561014657600080fd5b5061014f6104e9565b60405161015c91906120f0565b60405180910390f35b61017f600480360381019061017a9190612146565b61050d565b005b34801561018d57600080fd5b506101966105e7565b6040516101a3919061218c565b60405180910390f35b6101c660048036038101906101c1919061220b565b6105ed565b005b3480156101d457600080fd5b506101dd6108be565b6040516101ea91906120f0565b60405180910390f35b3480156101ff57600080fd5b506102086108e2565b005b34801561021657600080fd5b50610231600480360381019061022c919061224b565b610ae3565b005b34801561023f57600080fd5b50610248610b45565b604051610255919061218c565b60405180910390f35b34801561026a57600080fd5b50610273610b4b565b604051610280919061218c565b60405180910390f35b34801561029557600080fd5b5061029e610b55565b6040516102ab919061218c565b60405180910390f35b3480156102c057600080fd5b506102db60048036038101906102d691906122b6565b610b5b565b6040516102e8919061218c565b60405180910390f35b61030b60048036038101906103069190612321565b610b73565b005b34801561031957600080fd5b50610322610c26565b60405161032f919061235d565b60405180910390f35b610340610cc7565b005b34801561034e57600080fd5b50610357610e51565b604051610364919061218c565b60405180910390f35b34801561037957600080fd5b50610394600480360381019061038f91906122b6565b610e57565b6040516103a1919061218c565b60405180910390f35b3480156103b657600080fd5b506103d160048036038101906103cc919061224b565b610ea0565b6040516103df929190612378565b60405180910390f35b3480156103f457600080fd5b5061040f600480360381019061040a91906123a1565b6111d3565b60405161041c919061218c565b60405180910390f35b61043f600480360381019061043a919061220b565b611581565b60405161044f94939291906123ff565b60405180910390f35b34801561046457600080fd5b5061047f600480360381019061047a9190612444565b6118cb565b005b34801561048d57600080fd5b506104a860048036038101906104a391906124ab565b6119ef565b6040516104b5919061218c565b60405180910390f35b3480156104ca57600080fd5b506104d3611e9f565b6040516104e091906120f0565b60405180910390f35b7f000000000000000000000000000000000000000000000000000000000000000081565b620d2f0060055461051e919061251a565b421061052957600080fd5b670de0b6b3a7640000341461053d57600080fd5b6002339080600181540180825580915050600190039060005260206000200160009091909190916101000a81548173ffffffffffffffffffffffffffffffffffffffff021916908373ffffffffffffffffffffffffffffffffffffffff16021790555080600360003373ffffffffffffffffffffffffffffffffffffffff1673ffffffffffffffffffffffffffffffffffffffff1681526020019081526020016000208190555050565b600f5481565b660e35fa931a0000341161060057600080fd5b817f000000000000000000000000000000000000000000000000000000000000000073ffffffffffffffffffffffffffffffffffffffff166370a08231336040518263ffffffff1660e01b815260040161065a919061254e565b602060405180830381865afa158015610677573d6000803e3d6000fd5b505050506040513d601f19601f8201168201806040525081019061069b919061257e565b10156106a657600080fd5b600b60019054906101000a900460ff166106bf57600080fd5b6000600b60016101000a81548160ff02191690831515021790555060008060009054906101000a900473ffffffffffffffffffffffffffffffffffffffff16905061070981610b73565b7f000000000000000000000000000000000000000000000000000000000000000073ffffffffffffffffffffffffffffffffffffffff1663095ea7b330856040518363ffffffff1660e01b81526004016107649291906125ab565b6020604051808303816000875af1158015610783573d6000803e3d6000fd5b505050506040513d601f19601f820116820180604052508101906107a791906125e9565b507f000000000000000000000000000000000000000000000000000000000000000073ffffffffffffffffffffffffffffffffffffffff166323b872dd3330866040518463ffffffff1660e01b815260040161080593929190612616565b6020604051808303816000875af1158015610824573d6000803e3d6000fd5b505050506040513d601f19601f8201168201806040525081019061084891906125e9565b50610851610c26565b60088190555033600960006101000a81548173ffffffffffffffffffffffffffffffffffffffff021916908373ffffffffffffffffffffffffffffffffffffffff16021790555082600a8190555081600b60006101000a81548160ff021916908315150217905550505050565b7f000000000000000000000000000000000000000000000000000000000000000081565b620d2f006005546108f3919061251a565b4210156108ff57600080fd5b600060075490506000806002805490509050600061091b610c26565b905060005b82811015610a5757846109ba8360036000600286815481106109455761094461264d565b5b9060005260206000200160009054906101000a900473ffffffffffffffffffffffffffffffffffffffff1673ffffffffffffffffffffffffffffffffffffffff1673ffffffffffffffffffffffffffffffffffffffff168152602001908152602001600020546109b5919061267c565b611ec3565b1215610a445780935060036000600283815481106109db576109da61264d565b5b9060005260206000200160009054906101000a900473ffffffffffffffffffffffffffffffffffffffff1673ffffffffffffffffffffffffffffffffffffffff1673ffffffffffffffffffffffffffffffffffffffff1681526020019081526020016000205494505b8080610a4f906126bf565b915050610920565b5060028381548110610a6c57610a6b61264d565b5b9060005260206000200160009054906101000a900473ffffffffffffffffffffffffffffffffffffffff1673ffffffffffffffffffffffffffffffffffffffff166108fc479081150290604051600060405180830381858888f19350505050158015610adc573d6000803e3d6000fd5b5050505050565b60008054906101000a900473ffffffffffffffffffffffffffffffffffffffff1673ffffffffffffffffffffffffffffffffffffffff163373ffffffffffffffffffffffffffffffffffffffff1614610b3b57600080fd5b80600e8190555050565b600c5481565b6000600c54905090565b600d5481565b60106020528060005260406000206000915090505481565b6000808273ffffffffffffffffffffffffffffffffffffffff1634604051610b9a90612738565b60006040518083038185875af1925050503d8060008114610bd7576040519150601f19603f3d011682016040523d82523d6000602084013e610bdc565b606091505b509150915081610c21576040517f08c379a0000000000000000000000000000000000000000000000000000000008152600401610c18906127aa565b60405180910390fd5b505050565b600080600160009054906101000a900473ffffffffffffffffffffffffffffffffffffffff1673ffffffffffffffffffffffffffffffffffffffff1663feaf968c6040518163ffffffff1660e01b815260040160a060405180830381865afa158015610c96573d6000803e3d6000fd5b505050506040513d601f19601f82011682018060405250810190610cba9190612821565b5050509150508091505090565b60008054906101000a900473ffffffffffffffffffffffffffffffffffffffff1673ffffffffffffffffffffffffffffffffffffffff163373ffffffffffffffffffffffffffffffffffffffff1614610d1f57600080fd5b600b60019054906101000a900460ff1615610d3957600080fd5b6000610d43610c26565b9050600b60009054906101000a900460ff1615158160085412151503610e33577f000000000000000000000000000000000000000000000000000000000000000073ffffffffffffffffffffffffffffffffffffffff1663a9059cbb600960009054906101000a900473ffffffffffffffffffffffffffffffffffffffff166002600a54610dd1919061289c565b6040518363ffffffff1660e01b8152600401610dee9291906125ab565b6020604051808303816000875af1158015610e0d573d6000803e3d6000fd5b505050506040513d601f19601f82011682018060405250810190610e3191906125e9565b505b6001600b60016101000a81548160ff02191690831515021790555050565b600e5481565b6000601060008373ffffffffffffffffffffffffffffffffffffffff1673ffffffffffffffffffffffffffffffffffffffff168152602001908152602001600020549050919050565b60008060007f000000000000000000000000000000000000000000000000000000000000000073ffffffffffffffffffffffffffffffffffffffff166370a08231306040518263ffffffff1660e01b8152600401610efe919061254e565b602060405180830381865afa158015610f1b573d6000803e3d6000fd5b505050506040513d601f19601f82011682018060405250810190610f3f919061257e565b905060007f000000000000000000000000000000000000000000000000000000000000000073ffffffffffffffffffffffffffffffffffffffff166370a08231306040518263ffffffff1660e01b8152600401610f9c919061254e565b602060405180830381865afa158015610fb9573d6000803e3d6000fd5b505050506040513d601f19601f82011682018060405250810190610fdd919061257e565b9050600f548286610fee919061289c565b610ff8919061290d565b9350600f548186611009919061289c565b611013919061290d565b92506000841180156110255750600083115b611064576040517f08c379a000000000000000000000000000000000000000000000000000000000815260040161105b9061298a565b60405180910390fd5b61106e3386611ee5565b61108e848361107d91906129aa565b848361108991906129aa565b611f58565b7f000000000000000000000000000000000000000000000000000000000000000073ffffffffffffffffffffffffffffffffffffffff1663a9059cbb33866040518363ffffffff1660e01b81526004016110e99291906125ab565b6020604051808303816000875af1158015611108573d6000803e3d6000fd5b505050506040513d601f19601f8201168201806040525081019061112c91906125e9565b507f000000000000000000000000000000000000000000000000000000000000000073ffffffffffffffffffffffffffffffffffffffff1663a9059cbb33856040518363ffffffff1660e01b81526004016111889291906125ab565b6020604051808303816000875af11580156111a7573d6000803e3d6000fd5b505050506040513d601f19601f820116820180604052508101906111cb91906125e9565b505050915091565b60007f000000000000000000000000000000000000000000000000000000000000000073ffffffffffffffffffffffffffffffffffffffff166323b872dd3330866040518463ffffffff1660e01b815260040161123293929190612616565b6020604051808303816000875af1158015611251573d6000803e3d6000fd5b505050506040513d601f19601f8201168201806040525081019061127591906125e9565b507f000000000000000000000000000000000000000000000000000000000000000073ffffffffffffffffffffffffffffffffffffffff166323b872dd3330856040518463ffffffff1660e01b81526004016112d393929190612616565b6020604051808303816000875af11580156112f2573d6000803e3d6000fd5b505050506040513d601f19601f8201168201806040525081019061131691906125e9565b506000600c54118061132a57506000600d54115b1561138c5782600d5461133d919061289c565b82600c5461134b919061289c565b1461138b576040517f08c379a000000000000000000000000000000000000000000000000000000000815260040161138290612a2a565b60405180910390fd5b5b6000600f54036113b1576113aa82846113a5919061289c565b611f6a565b90506113f2565b6113ef600c54600f54856113c5919061289c565b6113cf919061290d565b600d54600f54856113e0919061289c565b6113ea919061290d565b611fe4565b90505b60008111611435576040517f08c379a000000000000000000000000000000000000000000000000000000000815260040161142c90612a96565b60405180910390fd5b61143f3382611ffe565b61157b7f000000000000000000000000000000000000000000000000000000000000000073ffffffffffffffffffffffffffffffffffffffff166370a08231306040518263ffffffff1660e01b815260040161149b919061254e565b602060405180830381865afa1580156114b8573d6000803e3d6000fd5b505050506040513d601f19601f820116820180604052508101906114dc919061257e565b7f000000000000000000000000000000000000000000000000000000000000000073ffffffffffffffffffffffffffffffffffffffff166370a08231306040518263ffffffff1660e01b8152600401611535919061254e565b602060405180830381865afa158015611552573d6000803e3d6000fd5b505050506040513d601f19601f82011682018060405250810190611576919061257e565b611f58565b92915050565b600080600080660e35fa931a0000341161159a57600080fd5b857f000000000000000000000000000000000000000000000000000000000000000073ffffffffffffffffffffffffffffffffffffffff166370a08231336040518263ffffffff1660e01b81526004016115f4919061254e565b602060405180830381865afa158015611611573d6000803e3d6000fd5b505050506040513d601f19601f82011682018060405250810190611635919061257e565b101561164057600080fd5b60008060009054906101000a900473ffffffffffffffffffffffffffffffffffffffff16905061166f81610b73565b7f000000000000000000000000000000000000000000000000000000000000000073ffffffffffffffffffffffffffffffffffffffff1663095ea7b330896040518363ffffffff1660e01b81526004016116ca9291906125ab565b6020604051808303816000875af11580156116e9573d6000803e3d6000fd5b505050506040513d601f19601f8201168201806040525081019061170d91906125e9565b507f000000000000000000000000000000000000000000000000000000000000000073ffffffffffffffffffffffffffffffffffffffff166323b872dd33308a6040518463ffffffff1660e01b815260040161176b93929190612616565b6020604051808303816000875af115801561178a573d6000803e3d6000fd5b505050506040513d601f19601f820116820180604052508101906117ae91906125e9565b506117b7610c26565b600460003373ffffffffffffffffffffffffffffffffffffffff1673ffffffffffffffffffffffffffffffffffffffff168152602001908152602001600020819055507ff96813a6039a15f3181d1292e193f7ece55bcf1068367c89943b658be6cb1f37600460003373ffffffffffffffffffffffffffffffffffffffff1673ffffffffffffffffffffffffffffffffffffffff1681526020019081526020016000205487338a60405161186e94939291906123ff565b60405180910390a1600460003373ffffffffffffffffffffffffffffffffffffffff1673ffffffffffffffffffffffffffffffffffffffff1681526020019081526020016000205486338994509450945094505092959194509250565b60008054906101000a900473ffffffffffffffffffffffffffffffffffffffff1673ffffffffffffffffffffffffffffffffffffffff163373ffffffffffffffffffffffffffffffffffffffff161461192357600080fd5b600061192d610c26565b90508315158186121515036119e8577f000000000000000000000000000000000000000000000000000000000000000073ffffffffffffffffffffffffffffffffffffffff1663a9059cbb84600285611986919061289c565b6040518363ffffffff1660e01b81526004016119a39291906125ab565b6020604051808303816000875af11580156119c2573d6000803e3d6000fd5b505050506040513d601f19601f820116820180604052508101906119e691906125e9565b505b5050505050565b60007f000000000000000000000000000000000000000000000000000000000000000073ffffffffffffffffffffffffffffffffffffffff168373ffffffffffffffffffffffffffffffffffffffff161480611a9657507f000000000000000000000000000000000000000000000000000000000000000073ffffffffffffffffffffffffffffffffffffffff168373ffffffffffffffffffffffffffffffffffffffff16145b611ad5576040517f08c379a0000000000000000000000000000000000000000000000000000000008152600401611acc90612b02565b60405180910390fd5b60008211611b18576040517f08c379a0000000000000000000000000000000000000000000000000000000008152600401611b0f90612b6e565b60405180910390fd5b60007f000000000000000000000000000000000000000000000000000000000000000073ffffffffffffffffffffffffffffffffffffffff168473ffffffffffffffffffffffffffffffffffffffff1614905060008060008084611bc3577f00000000000000000000000000000000000000000000000000000000000000007f0000000000000000000000000000000000000000000000000000000000000000600d54600c54611c0c565b7f00000000000000000000000000000000000000000000000000000000000000007f0000000000000000000000000000000000000000000000000000000000000000600c54600d545b93509350935093508373ffffffffffffffffffffffffffffffffffffffff166323b872dd33308a6040518463ffffffff1660e01b8152600401611c5193929190612616565b6020604051808303816000875af1158015611c70573d6000803e3d6000fd5b505050506040513d601f19601f82011682018060405250810190611c9491906125e9565b5060006103e861038489611ca8919061289c565b611cb2919061290d565b90508083611cc0919061251a565b8183611ccc919061289c565b611cd6919061290d565b96508373ffffffffffffffffffffffffffffffffffffffff1663a9059cbb33896040518363ffffffff1660e01b8152600401611d139291906125ab565b6020604051808303816000875af1158015611d32573d6000803e3d6000fd5b505050506040513d601f19601f82011682018060405250810190611d5691906125e9565b50611e937f000000000000000000000000000000000000000000000000000000000000000073ffffffffffffffffffffffffffffffffffffffff166370a08231306040518263ffffffff1660e01b8152600401611db3919061254e565b602060405180830381865afa158015611dd0573d6000803e3d6000fd5b505050506040513d601f19601f82011682018060405250810190611df4919061257e565b7f000000000000000000000000000000000000000000000000000000000000000073ffffffffffffffffffffffffffffffffffffffff166370a08231306040518263ffffffff1660e01b8152600401611e4d919061254e565b602060405180830381865afa158015611e6a573d6000803e3d6000fd5b505050506040513d601f19601f82011682018060405250810190611e8e919061257e565b611f58565b50505050505092915050565b7f000000000000000000000000000000000000000000000000000000000000000081565b600080821215611edc5781611ed790612b8e565b611ede565b815b9050919050565b80601060008473ffffffffffffffffffffffffffffffffffffffff1673ffffffffffffffffffffffffffffffffffffffff1681526020019081526020016000206000828254611f3491906129aa565b9250508190555080600f6000828254611f4d91906129aa565b925050819055505050565b81600c8190555080600d819055505050565b60006003821115611fd15781905060006001600284611f89919061290d565b611f93919061251a565b90505b81811015611fcb578091506002818285611fb0919061290d565b611fba919061251a565b611fc4919061290d565b9050611f96565b50611fdf565b60008214611fde57600190505b5b919050565b600081831115611ff45781611ff6565b825b905092915050565b80601060008473ffffffffffffffffffffffffffffffffffffffff1673ffffffffffffffffffffffffffffffffffffffff168152602001908152602001600020600082825461204d919061251a565b9250508190555080600f6000828254612066919061251a565b925050819055505050565b600073ffffffffffffffffffffffffffffffffffffffff82169050919050565b6000819050919050565b60006120b66120b16120ac84612071565b612091565b612071565b9050919050565b60006120c88261209b565b9050919050565b60006120da826120bd565b9050919050565b6120ea816120cf565b82525050565b600060208201905061210560008301846120e1565b92915050565b600080fd5b6000819050919050565b61212381612110565b811461212e57600080fd5b50565b6000813590506121408161211a565b92915050565b60006020828403121561215c5761215b61210b565b5b600061216a84828501612131565b91505092915050565b6000819050919050565b61218681612173565b82525050565b60006020820190506121a1600083018461217d565b92915050565b6121b081612173565b81146121bb57600080fd5b50565b6000813590506121cd816121a7565b92915050565b60008115159050919050565b6121e8816121d3565b81146121f357600080fd5b50565b600081359050612205816121df565b92915050565b600080604083850312156122225761222161210b565b5b6000612230858286016121be565b9250506020612241858286016121f6565b9150509250929050565b6000602082840312156122615761226061210b565b5b600061226f848285016121be565b91505092915050565b600061228382612071565b9050919050565b61229381612278565b811461229e57600080fd5b50565b6000813590506122b08161228a565b92915050565b6000602082840312156122cc576122cb61210b565b5b60006122da848285016122a1565b91505092915050565b60006122ee82612071565b9050919050565b6122fe816122e3565b811461230957600080fd5b50565b60008135905061231b816122f5565b92915050565b6000602082840312156123375761233661210b565b5b60006123458482850161230c565b91505092915050565b61235781612110565b82525050565b6000602082019050612372600083018461234e565b92915050565b600060408201905061238d600083018561217d565b61239a602083018461217d565b9392505050565b600080604083850312156123b8576123b761210b565b5b60006123c6858286016121be565b92505060206123d7858286016121be565b9150509250929050565b6123ea816121d3565b82525050565b6123f981612278565b82525050565b6000608082019050612414600083018761234e565b61242160208301866123e1565b61242e60408301856123f0565b61243b606083018461217d565b95945050505050565b6000806000806080858703121561245e5761245d61210b565b5b600061246c87828801612131565b945050602061247d878288016121f6565b935050604061248e878288016122a1565b925050606061249f878288016121be565b91505092959194509250565b600080604083850312156124c2576124c161210b565b5b60006124d0858286016122a1565b92505060206124e1858286016121be565b9150509250929050565b7f4e487b7100000000000000000000000000000000000000000000000000000000600052601160045260246000fd5b600061252582612173565b915061253083612173565b9250828201905080821115612548576125476124eb565b5b92915050565b600060208201905061256360008301846123f0565b92915050565b600081519050612578816121a7565b92915050565b6000602082840312156125945761259361210b565b5b60006125a284828501612569565b91505092915050565b60006040820190506125c060008301856123f0565b6125cd602083018461217d565b9392505050565b6000815190506125e3816121df565b92915050565b6000602082840312156125ff576125fe61210b565b5b600061260d848285016125d4565b91505092915050565b600060608201905061262b60008301866123f0565b61263860208301856123f0565b612645604083018461217d565b949350505050565b7f4e487b7100000000000000000000000000000000000000000000000000000000600052603260045260246000fd5b600061268782612110565b915061269283612110565b92508282039050818112600084121682821360008512151617156126b9576126b86124eb565b5b92915050565b60006126ca82612173565b91507fffffffffffffffffffffffffffffffffffffffffffffffffffffffffffffffff82036126fc576126fb6124eb565b5b600182019050919050565b600081905092915050565b50565b6000612722600083612707565b915061272d82612712565b600082019050919050565b600061274382612715565b9150819050919050565b600082825260208201905092915050565b7f4661696c656420746f2073656e64204574686572000000000000000000000000600082015250565b600061279460148361274d565b915061279f8261275e565b602082019050919050565b600060208201905081810360008301526127c381612787565b9050919050565b600069ffffffffffffffffffff82169050919050565b6127e9816127ca565b81146127f457600080fd5b50565b600081519050612806816127e0565b92915050565b60008151905061281b8161211a565b92915050565b600080600080600060a0868803121561283d5761283c61210b565b5b600061284b888289016127f7565b955050602061285c8882890161280c565b945050604061286d88828901612569565b935050606061287e88828901612569565b925050608061288f888289016127f7565b9150509295509295909350565b60006128a782612173565b91506128b283612173565b92508282026128c081612173565b915082820484148315176128d7576128d66124eb565b5b5092915050565b7f4e487b7100000000000000000000000000000000000000000000000000000000600052601260045260246000fd5b600061291882612173565b915061292383612173565b925082612933576129326128de565b5b828204905092915050565b7f616d6f756e7430206f7220616d6f756e7431203d203000000000000000000000600082015250565b600061297460168361274d565b915061297f8261293e565b602082019050919050565b600060208201905081810360008301526129a381612967565b9050919050565b60006129b582612173565b91506129c083612173565b92508282039050818111156129d8576129d76124eb565b5b92915050565b7f78202f207920213d206478202f20647900000000000000000000000000000000600082015250565b6000612a1460108361274d565b9150612a1f826129de565b602082019050919050565b60006020820190508181036000830152612a4381612a07565b9050919050565b7f736861726573203d203000000000000000000000000000000000000000000000600082015250565b6000612a80600a8361274d565b9150612a8b82612a4a565b602082019050919050565b60006020820190508181036000830152612aaf81612a73565b9050919050565b7f696e76616c696420746f6b656e00000000000000000000000000000000000000600082015250565b6000612aec600d8361274d565b9150612af782612ab6565b602082019050919050565b60006020820190508181036000830152612b1b81612adf565b9050919050565b7f616d6f756e7420696e203d203000000000000000000000000000000000000000600082015250565b6000612b58600d8361274d565b9150612b6382612b22565b602082019050919050565b60006020820190508181036000830152612b8781612b4b565b9050919050565b6000612b9982612110565b91507f80000000000000000000000000000000000000000000000000000000000000008203612bcb57612bca6124eb565b5b81600003905091905056fea2646970667358221220a1192154bdbe06ad6615d7f49c3f59974ef445442028b495a58cfc614eddbb4464736f6c63430008110033",
  "linkReferences": {},
  "deployedLinkReferences": {}
}