{
  "_format": "hh-sol-artifact-1",
  "contractName": "TokenC",
  "sourceName": "contracts/TokenC.sol",
  "abi": [
    {
      "inputs": [],
      "stateMutability": "nonpayable",
      "type": "constructor"
    },
    {
      "anonymous": false,
      "inputs": [
        {
          "indexed": true,
          "internalType": "address",
          "name": "owner",
          "type": "address"
        },
        {
          "indexed": true,
          "internalType": "address",
          "name": "spender",
          "type": "address"
        },
        {
          "indexed": false,
          "internalType": "uint256",
          "name": "value",
          "type": "uint256"
        }
      ],
      "name": "Approval",
      "type": "event"
    },
    {
      "anonymous": false,
      "inputs": [
        {
          "indexed": true,
          "internalType": "address",
          "name": "from",
          "type": "address"
        },
        {
          "indexed": true,
          "internalType": "address",
          "name": "to",
          "type": "address"
        },
        {
          "indexed": false,
          "internalType": "uint256",
          "name": "value",
          "type": "uint256"
        }
      ],
      "name": "Transfer",
      "type": "event"
    },
    {
      "inputs": [
        {
          "internalType": "address",
          "name": "owner",
          "type": "address"
        },
        {
          "internalType": "address",
          "name": "spender",
          "type": "address"
        }
      ],
      "name": "allowance",
      "outputs": [
        {
          "internalType": "uint256",
          "name": "",
          "type": "uint256"
        }
      ],
      "stateMutability": "view",
      "type": "function"
    },
    {
      "inputs": [
        {
          "internalType": "address",
          "name": "spender",
          "type": "address"
        },
        {
          "internalType": "uint256",
          "name": "amount",
          "type": "uint256"
        }
      ],
      "name": "approve",
      "outputs": [
        {
          "internalType": "bool",
          "name": "",
          "type": "bool"
        }
      ],
      "stateMutability": "nonpayable",
      "type": "function"
    },
    {
      "inputs": [
        {
          "internalType": "address",
          "name": "account",
          "type": "address"
        }
      ],
      "name": "balanceOf",
      "outputs": [
        {
          "internalType": "uint256",
          "name": "",
          "type": "uint256"
        }
      ],
      "stateMutability": "view",
      "type": "function"
    },
    {
      "inputs": [
        {
          "internalType": "address",
          "name": "proxyAddress",
          "type": "address"
        }
      ],
      "name": "chargeProxy",
      "outputs": [],
      "stateMutability": "nonpayable",
      "type": "function"
    },
    {
      "inputs": [],
      "name": "decimals",
      "outputs": [
        {
          "internalType": "uint8",
          "name": "",
          "type": "uint8"
        }
      ],
      "stateMutability": "view",
      "type": "function"
    },
    {
      "inputs": [
        {
          "internalType": "address",
          "name": "spender",
          "type": "address"
        },
        {
          "internalType": "uint256",
          "name": "subtractedValue",
          "type": "uint256"
        }
      ],
      "name": "decreaseAllowance",
      "outputs": [
        {
          "internalType": "bool",
          "name": "",
          "type": "bool"
        }
      ],
      "stateMutability": "nonpayable",
      "type": "function"
    },
    {
      "inputs": [
        {
          "internalType": "address",
          "name": "spender",
          "type": "address"
        },
        {
          "internalType": "uint256",
          "name": "addedValue",
          "type": "uint256"
        }
      ],
      "name": "increaseAllowance",
      "outputs": [
        {
          "internalType": "bool",
          "name": "",
          "type": "bool"
        }
      ],
      "stateMutability": "nonpayable",
      "type": "function"
    },
    {
      "inputs": [
        {
          "internalType": "uint256",
          "name": "amount",
          "type": "uint256"
        }
      ],
      "name": "mint",
      "outputs": [],
      "stateMutability": "nonpayable",
      "type": "function"
    },
    {
      "inputs": [],
      "name": "name",
      "outputs": [
        {
          "internalType": "string",
          "name": "",
          "type": "string"
        }
      ],
      "stateMutability": "view",
      "type": "function"
    },
    {
      "inputs": [
        {
          "internalType": "address",
          "name": "speder",
          "type": "address"
        }
      ],
      "name": "setAllowance",
      "outputs": [],
      "stateMutability": "view",
      "type": "function"
    },
    {
      "inputs": [],
      "name": "symbol",
      "outputs": [
        {
          "internalType": "string",
          "name": "",
          "type": "string"
        }
      ],
      "stateMutability": "view",
      "type": "function"
    },
    {
      "inputs": [],
      "name": "totalSupply",
      "outputs": [
        {
          "internalType": "uint256",
          "name": "",
          "type": "uint256"
        }
      ],
      "stateMutability": "view",
      "type": "function"
    },
    {
      "inputs": [
        {
          "internalType": "address",
          "name": "to",
          "type": "address"
        },
        {
          "internalType": "uint256",
          "name": "amount",
          "type": "uint256"
        }
      ],
      "name": "transfer",
      "outputs": [
        {
          "internalType": "bool",
          "name": "",
          "type": "bool"
        }
      ],
      "stateMutability": "nonpayable",
      "type": "function"
    },
    {
      "inputs": [
        {
          "internalType": "address",
          "name": "from",
          "type": "address"
        },
        {
          "internalType": "address",
          "name": "to",
          "type": "address"
        },
        {
          "internalType": "uint256",
          "name": "amount",
          "type": "uint256"
        }
      ],
      "name": "transferFrom",
      "outputs": [
        {
          "internalType": "bool",
          "name": "",
          "type": "bool"
        }
      ],
      "stateMutability": "nonpayable",
      "type": "function"
    }
  ],
  "bytecode": "0x60806040523480156200001157600080fd5b506040518060400160405280600781526020017f546f6b656e2043000000000000000000000000000000000000000000000000008152506040518060400160405280600781526020017f544f4b454e2d430000000000000000000000000000000000000000000000000081525081600390816200008f919062000365565b508060049081620000a1919062000365565b50505033600660006101000a81548173ffffffffffffffffffffffffffffffffffffffff021916908373ffffffffffffffffffffffffffffffffffffffff1602179055506200044c565b600081519050919050565b7f4e487b7100000000000000000000000000000000000000000000000000000000600052604160045260246000fd5b7f4e487b7100000000000000000000000000000000000000000000000000000000600052602260045260246000fd5b600060028204905060018216806200016d57607f821691505b60208210810362000183576200018262000125565b5b50919050565b60008190508160005260206000209050919050565b60006020601f8301049050919050565b600082821b905092915050565b600060088302620001ed7fffffffffffffffffffffffffffffffffffffffffffffffffffffffffffffffff82620001ae565b620001f98683620001ae565b95508019841693508086168417925050509392505050565b6000819050919050565b6000819050919050565b600062000246620002406200023a8462000211565b6200021b565b62000211565b9050919050565b6000819050919050565b620002628362000225565b6200027a62000271826200024d565b848454620001bb565b825550505050565b600090565b6200029162000282565b6200029e81848462000257565b505050565b5b81811015620002c657620002ba60008262000287565b600181019050620002a4565b5050565b601f8211156200031557620002df8162000189565b620002ea846200019e565b81016020851015620002fa578190505b6200031262000309856200019e565b830182620002a3565b50505b505050565b600082821c905092915050565b60006200033a600019846008026200031a565b1980831691505092915050565b600062000355838362000327565b9150826002028217905092915050565b6200037082620000eb565b67ffffffffffffffff8111156200038c576200038b620000f6565b5b62000398825462000154565b620003a5828285620002ca565b600060209050601f831160018114620003dd5760008415620003c8578287015190505b620003d4858262000347565b86555062000444565b601f198416620003ed8662000189565b60005b828110156200041757848901518255600182019150602085019450602081019050620003f0565b8683101562000437578489015162000433601f89168262000327565b8355505b6001600288020188555050505b505050505050565b6116a9806200045c6000396000f3fe608060405234801561001057600080fd5b50600436106100ea5760003560e01c806370a082311161008c578063a457c2d711610066578063a457c2d71461025f578063a9059cbb1461028f578063dd62ed3e146102bf578063ee20e784146102ef576100ea565b806370a08231146101f557806395d89b4114610225578063a0712d6814610243576100ea565b806323b872dd116100c857806323b872dd1461015b578063313ce5671461018b57806339509351146101a957806354f14a67146101d9576100ea565b806306fdde03146100ef578063095ea7b31461010d57806318160ddd1461013d575b600080fd5b6100f761030b565b6040516101049190610e4d565b60405180910390f35b61012760048036038101906101229190610f08565b61039d565b6040516101349190610f63565b60405180910390f35b6101456103c0565b6040516101529190610f8d565b60405180910390f35b61017560048036038101906101709190610fa8565b6103ca565b6040516101829190610f63565b60405180910390f35b6101936103f9565b6040516101a09190611017565b60405180910390f35b6101c360048036038101906101be9190610f08565b610402565b6040516101d09190610f63565b60405180910390f35b6101f360048036038101906101ee9190611032565b610439565b005b61020f600480360381019061020a9190611032565b6104a2565b60405161021c9190610f8d565b60405180910390f35b61022d6104ea565b60405161023a9190610e4d565b60405180910390f35b61025d6004803603810190610258919061105f565b61057c565b005b61027960048036038101906102749190610f08565b61065b565b6040516102869190610f63565b60405180910390f35b6102a960048036038101906102a49190610f08565b6106d2565b6040516102b69190610f63565b60405180910390f35b6102d960048036038101906102d4919061108c565b6106f5565b6040516102e69190610f8d565b60405180910390f35b61030960048036038101906103049190611032565b61077c565b005b60606003805461031a906110fb565b80601f0160208091040260200160405190810160405280929190818152602001828054610346906110fb565b80156103935780601f1061036857610100808354040283529160200191610393565b820191906000526020600020905b81548152906001019060200180831161037657829003601f168201915b5050505050905090565b6000806103a861078a565b90506103b5818585610792565b600191505092915050565b6000600254905090565b6000806103d561078a565b90506103e285828561095b565b6103ed8585856109e7565b60019150509392505050565b60006012905090565b60008061040d61078a565b905061042e81858561041f85896106f5565b610429919061115b565b610792565b600191505092915050565b600660009054906101000a900473ffffffffffffffffffffffffffffffffffffffff1673ffffffffffffffffffffffffffffffffffffffff163373ffffffffffffffffffffffffffffffffffffffff161461049357600080fd5b61049f81612710610c5d565b50565b60008060008373ffffffffffffffffffffffffffffffffffffffff1673ffffffffffffffffffffffffffffffffffffffff168152602001908152602001600020549050919050565b6060600480546104f9906110fb565b80601f0160208091040260200160405190810160405280929190818152602001828054610525906110fb565b80156105725780601f1061054757610100808354040283529160200191610572565b820191906000526020600020905b81548152906001019060200180831161055557829003601f168201915b5050505050905090565b610258600560003373ffffffffffffffffffffffffffffffffffffffff1673ffffffffffffffffffffffffffffffffffffffff16815260200190815260200160002054426105ca919061118f565b1161060a576040517f08c379a00000000000000000000000000000000000000000000000000000000081526004016106019061120f565b60405180910390fd5b42600560003373ffffffffffffffffffffffffffffffffffffffff1673ffffffffffffffffffffffffffffffffffffffff168152602001908152602001600020819055506106583382610c5d565b50565b60008061066661078a565b9050600061067482866106f5565b9050838110156106b9576040517f08c379a00000000000000000000000000000000000000000000000000000000081526004016106b0906112a1565b60405180910390fd5b6106c68286868403610792565b60019250505092915050565b6000806106dd61078a565b90506106ea8185856109e7565b600191505092915050565b6000600160008473ffffffffffffffffffffffffffffffffffffffff1673ffffffffffffffffffffffffffffffffffffffff16815260200190815260200160002060008373ffffffffffffffffffffffffffffffffffffffff1673ffffffffffffffffffffffffffffffffffffffff16815260200190815260200160002054905092915050565b61078633826106f5565b5050565b600033905090565b600073ffffffffffffffffffffffffffffffffffffffff168373ffffffffffffffffffffffffffffffffffffffff1603610801576040517f08c379a00000000000000000000000000000000000000000000000000000000081526004016107f890611333565b60405180910390fd5b600073ffffffffffffffffffffffffffffffffffffffff168273ffffffffffffffffffffffffffffffffffffffff1603610870576040517f08c379a0000000000000000000000000000000000000000000000000000000008152600401610867906113c5565b60405180910390fd5b80600160008573ffffffffffffffffffffffffffffffffffffffff1673ffffffffffffffffffffffffffffffffffffffff16815260200190815260200160002060008473ffffffffffffffffffffffffffffffffffffffff1673ffffffffffffffffffffffffffffffffffffffff168152602001908152602001600020819055508173ffffffffffffffffffffffffffffffffffffffff168373ffffffffffffffffffffffffffffffffffffffff167f8c5be1e5ebec7d5bd14f71427d1e84f3dd0314c0f7b2291e5b200ac8c7c3b9258360405161094e9190610f8d565b60405180910390a3505050565b600061096784846106f5565b90507fffffffffffffffffffffffffffffffffffffffffffffffffffffffffffffffff81146109e157818110156109d3576040517f08c379a00000000000000000000000000000000000000000000000000000000081526004016109ca90611431565b60405180910390fd5b6109e08484848403610792565b5b50505050565b600073ffffffffffffffffffffffffffffffffffffffff168373ffffffffffffffffffffffffffffffffffffffff1603610a56576040517f08c379a0000000000000000000000000000000000000000000000000000000008152600401610a4d906114c3565b60405180910390fd5b600073ffffffffffffffffffffffffffffffffffffffff168273ffffffffffffffffffffffffffffffffffffffff1603610ac5576040517f08c379a0000000000000000000000000000000000000000000000000000000008152600401610abc90611555565b60405180910390fd5b610ad0838383610db3565b60008060008573ffffffffffffffffffffffffffffffffffffffff1673ffffffffffffffffffffffffffffffffffffffff16815260200190815260200160002054905081811015610b56576040517f08c379a0000000000000000000000000000000000000000000000000000000008152600401610b4d906115e7565b60405180910390fd5b8181036000808673ffffffffffffffffffffffffffffffffffffffff1673ffffffffffffffffffffffffffffffffffffffff16815260200190815260200160002081905550816000808573ffffffffffffffffffffffffffffffffffffffff1673ffffffffffffffffffffffffffffffffffffffff168152602001908152602001600020600082825401925050819055508273ffffffffffffffffffffffffffffffffffffffff168473ffffffffffffffffffffffffffffffffffffffff167fddf252ad1be2c89b69c2b068fc378daa952ba7f163c4a11628f55a4df523b3ef84604051610c449190610f8d565b60405180910390a3610c57848484610db8565b50505050565b600073ffffffffffffffffffffffffffffffffffffffff168273ffffffffffffffffffffffffffffffffffffffff1603610ccc576040517f08c379a0000000000000000000000000000000000000000000000000000000008152600401610cc390611653565b60405180910390fd5b610cd860008383610db3565b8060026000828254610cea919061115b565b92505081905550806000808473ffffffffffffffffffffffffffffffffffffffff1673ffffffffffffffffffffffffffffffffffffffff168152602001908152602001600020600082825401925050819055508173ffffffffffffffffffffffffffffffffffffffff16600073ffffffffffffffffffffffffffffffffffffffff167fddf252ad1be2c89b69c2b068fc378daa952ba7f163c4a11628f55a4df523b3ef83604051610d9b9190610f8d565b60405180910390a3610daf60008383610db8565b5050565b505050565b505050565b600081519050919050565b600082825260208201905092915050565b60005b83811015610df7578082015181840152602081019050610ddc565b60008484015250505050565b6000601f19601f8301169050919050565b6000610e1f82610dbd565b610e298185610dc8565b9350610e39818560208601610dd9565b610e4281610e03565b840191505092915050565b60006020820190508181036000830152610e678184610e14565b905092915050565b600080fd5b600073ffffffffffffffffffffffffffffffffffffffff82169050919050565b6000610e9f82610e74565b9050919050565b610eaf81610e94565b8114610eba57600080fd5b50565b600081359050610ecc81610ea6565b92915050565b6000819050919050565b610ee581610ed2565b8114610ef057600080fd5b50565b600081359050610f0281610edc565b92915050565b60008060408385031215610f1f57610f1e610e6f565b5b6000610f2d85828601610ebd565b9250506020610f3e85828601610ef3565b9150509250929050565b60008115159050919050565b610f5d81610f48565b82525050565b6000602082019050610f786000830184610f54565b92915050565b610f8781610ed2565b82525050565b6000602082019050610fa26000830184610f7e565b92915050565b600080600060608486031215610fc157610fc0610e6f565b5b6000610fcf86828701610ebd565b9350506020610fe086828701610ebd565b9250506040610ff186828701610ef3565b9150509250925092565b600060ff82169050919050565b61101181610ffb565b82525050565b600060208201905061102c6000830184611008565b92915050565b60006020828403121561104857611047610e6f565b5b600061105684828501610ebd565b91505092915050565b60006020828403121561107557611074610e6f565b5b600061108384828501610ef3565b91505092915050565b600080604083850312156110a3576110a2610e6f565b5b60006110b185828601610ebd565b92505060206110c285828601610ebd565b9150509250929050565b7f4e487b7100000000000000000000000000000000000000000000000000000000600052602260045260246000fd5b6000600282049050600182168061111357607f821691505b602082108103611126576111256110cc565b5b50919050565b7f4e487b7100000000000000000000000000000000000000000000000000000000600052601160045260246000fd5b600061116682610ed2565b915061117183610ed2565b92508282019050808211156111895761118861112c565b5b92915050565b600061119a82610ed2565b91506111a583610ed2565b92508282039050818111156111bd576111bc61112c565b5b92915050565b7f4e65656420746f2077616974203130206d696e75746573000000000000000000600082015250565b60006111f9601783610dc8565b9150611204826111c3565b602082019050919050565b60006020820190508181036000830152611228816111ec565b9050919050565b7f45524332303a2064656372656173656420616c6c6f77616e63652062656c6f7760008201527f207a65726f000000000000000000000000000000000000000000000000000000602082015250565b600061128b602583610dc8565b91506112968261122f565b604082019050919050565b600060208201905081810360008301526112ba8161127e565b9050919050565b7f45524332303a20617070726f76652066726f6d20746865207a65726f2061646460008201527f7265737300000000000000000000000000000000000000000000000000000000602082015250565b600061131d602483610dc8565b9150611328826112c1565b604082019050919050565b6000602082019050818103600083015261134c81611310565b9050919050565b7f45524332303a20617070726f766520746f20746865207a65726f20616464726560008201527f7373000000000000000000000000000000000000000000000000000000000000602082015250565b60006113af602283610dc8565b91506113ba82611353565b604082019050919050565b600060208201905081810360008301526113de816113a2565b9050919050565b7f45524332303a20696e73756666696369656e7420616c6c6f77616e6365000000600082015250565b600061141b601d83610dc8565b9150611426826113e5565b602082019050919050565b6000602082019050818103600083015261144a8161140e565b9050919050565b7f45524332303a207472616e736665722066726f6d20746865207a65726f20616460008201527f6472657373000000000000000000000000000000000000000000000000000000602082015250565b60006114ad602583610dc8565b91506114b882611451565b604082019050919050565b600060208201905081810360008301526114dc816114a0565b9050919050565b7f45524332303a207472616e7366657220746f20746865207a65726f206164647260008201527f6573730000000000000000000000000000000000000000000000000000000000602082015250565b600061153f602383610dc8565b915061154a826114e3565b604082019050919050565b6000602082019050818103600083015261156e81611532565b9050919050565b7f45524332303a207472616e7366657220616d6f756e742065786365656473206260008201527f616c616e63650000000000000000000000000000000000000000000000000000602082015250565b60006115d1602683610dc8565b91506115dc82611575565b604082019050919050565b60006020820190508181036000830152611600816115c4565b9050919050565b7f45524332303a206d696e7420746f20746865207a65726f206164647265737300600082015250565b600061163d601f83610dc8565b915061164882611607565b602082019050919050565b6000602082019050818103600083015261166c81611630565b905091905056fea264697066735822122081de16719c703411542735cbcf97abec1d43121edd9b17434b093b6f68b3cadd64736f6c63430008110033",
  "linkReferences": {},
  "deployedLinkReferences": {}
}